:020000040802F0
:10000000600401209D010208030E0208570D02083A
:10001000010E0208A902020889100208000000006F
:10002000000000000000000000000000070E0208B1
:10003000AB02020800000000050E0208090E0208CB
:10004000B7010208B7010208B7010208B7010208A8
:10005000B7010208B7010208B7010208B701020898
:10006000B7010208B7010208B7010208B701020888
:10007000B7010208B7010208B7010208B701020878
:10008000B7010208B7010208B7010208B701020868
:10009000B7010208B7010208B7010208B701020858
:1000A000B7010208B7010208B7010208B701020848
:1000B000B7010208B7010208B7010208B701020838
:1000C000B7010208B7010208B7010208B701020828
:1000D000B7010208B7010208B7010208B701020818
:1000E000B7010208B7010208B7010208B701020808
:1000F000B7010208B7010208B7010208B7010208F8
:10010000B7010208B7010208B7010208B7010208E7
:10011000B7010208B7010208B7010208B7010208D7
:10012000B7010208B7010208B7010208B7010208C7
:10013000B7010208B7010208B7010208B7010208B7
:10014000B7010208B7010208B7010208B7010208A7
:10015000B7010208B7010208B7010208B701020897
:10016000B7010208B7010208B7010208B701020887
:10017000B7010208B7010208B70102080000000039
:10018000B7010208B7010208DFF80CD000F07AF8D6
:100190000048004715110208600401200648804706
:1001A00006480047FEE7FEE7FEE7FEE7FEE7FEE75C
:1001B000FEE7FEE7FEE7FEE7A10E0208890102085E
:1001C0002DE9F05F0546002092469B46884606468C
:1001D000814640241BE0284641464746224600F01F
:1001E00041F853465A46C01A914110D31146184659
:1001F000224600F028F82D1A67EB01084F462246E8
:100200000120002100F01FF817EB00094E41201ECD
:10021000A4F10104DFDC484631462A464346BDE8E6
:10022000F09FD2B201E000F8012B491EFBD27047CB
:100230000022F6E710B513460A4604461946FFF7B2
:10024000F0FF204610BD202A04DB203A00FA02F11C
:10025000002070479140C2F1200320FA03F31943B4
:1002600090407047202A04DB203A21FA02F0002156
:10027000704721FA02F3D040C2F1200291400843B6
:1002800019467047064C074D06E0E06840F0010350
:1002900094E8070098471034AC42F6D3FFF778FF94
:1002A00090110208B0110208FEE7704772B6FEE72F
:1002B00070B5044600F006F90546601C02D00448FB
:1002C0000078044400F0FEF8401BA042FAD370BD51
:1002D000000001202DE9F84F0022DFF89C914FF03B
:1002E000010803274FF00F0C09F1040AA9F1040BD0
:1002F00008FA02F50B682B40AB426ED10C7904F082
:100300000304012C01D0022C15D18668540007FA91
:1003100004FE26EA0E06D1F80CE00EFA04FE4EEAC0
:10032000060EC0F808E04468AC430D79C5F300152B
:100330009540254345600C79E443A40708D0C5687F
:10034000540007FA04F6B5438E68A6402E43C660F3
:100350000C7904F00304022C11D1D40800EB8406BC
:10036000356A5407E40E0CFA04FE25EA0E05D1F8AE
:1003700010E00EFA04FE4EEA050EC6F820E005680D
:10038000540007FA04F6B5430E7906F00306A640BA
:100390002E4306604C6814F4403F67D0374C256804
:1003A00045F480452560246804F480440094344C6E
:1003B00022F003052E19D6F8085894074FEA147E48
:1003C0000CFA0EF4A5432F4CA04201D1002424E0E6
:1003D0002D4CA04202D101241FE047E02B4CA0424B
:1003E00001D1022419E02A4CA04201D1032414E0D7
:1003F000284CA04201D104240FE0274CA04201D197
:1004000005240AE0254CA04201D1062405E0244C35
:10041000A04201D1072400E0082404FA0EF42C4382
:10042000C6F80848D9F800409C434D68ED0200D555
:100430001C43C9F80040DAF800409C434D68AD0207
:1004400000D51C43CAF80040DBF800409C434D68CF
:10045000AD0300D51C43CBF80040074D083D2C6888
:100460009C434E68F60300D51C432C60521C102A96
:10047000FFF43EAFBDE8F88F083C0140443802402D
:100480000030014000000240000402400008024029
:10049000000C02400010024000140240001802400C
:1004A000001C0240426921EA02030A4043EA024179
:1004B00081617047002A01D0816170470904816120
:1004C000704700000148806870470000000001206C
:1004D0000248816802781144816070470000012061
:1004E00010B50B48016841F400710160016841F4E6
:1004F00080610160016841F480710160032000F0B7
:1005000063F80F2000F006F800F026F8002010BD78
:10051000003C024070B504460D4D4FF47A712878C6
:10052000B1FBF0F00B490968B1FBF0F000F03EFBC5
:1005300008B1012070BD102C07D200222146501EA8
:1005400000F022F86C60002070BD012070BD00003A
:10055000000001200C00012008B50A48016841F4A0
:1005600080410160006800F4804000900548001F51
:10057000016841F080510160006800F080500090F7
:1005800008BD000044380240F0B40D460D4B1B6816
:10059000C3F30223C3F10704042C00D90424191D5A
:1005A000072901D2002300E0DB1E012606FA04F130
:1005B000491E294099409E40761E16403143F0BCAA
:1005C00000F06CBD0CED00E000F00701054A10687A
:1005D0004FF6FF03184040EA01200349084310602A
:1005E000704700000CED00E00000FA052DE9F0472F
:1005F00004460D46002C13D0DFF82891D9F80000EE
:10060000EFB200F00700A8420CD289F80070D9F8C8
:10061000000000F00700A84204D00120BDE8F087E8
:100620000120FBE72068404E810712D5400703D523
:10063000306840F4E05030602078000703D530681F
:1006400040F4604030603068A16820F0F00008435A
:1006500030602078C00731D03349606808390128FC
:1006600008D002280BD0032809D0096889070BD4C9
:100670000120D3E70968890306D40120CEE7096881
:10068000890101D40120C9E7316821F00301014348
:100690003160FFF717FF804641F2883A07E0FFF725
:1006A00011FFA0EB0800504501D90320B6E73068E0
:1006B000616800F00C00B0EB810FF0D1D9F80000B8
:1006C00000F00700A84209D989F80070D9F80000A5
:1006D00000F00700A84201D001209FE720784007E2
:1006E00005D53068E16820F4E05008433060207898
:1006F000000706D53068216920F4604040EAC10057
:10070000306000F03FF83168084AC1F30311515CD2
:10071000C8400749086007480068FFF7FBFE002053
:100720007CE70000003C02400838024078110208D3
:100730000C000120040001200148006870470000FF
:100740000C00012000B5FFF7F7FF04490968044ACF
:10075000C1F38221515CC84000BD0000083802404E
:100760008811020800B5FFF7E7FF04490968044A49
:10077000C1F34231515CC84000BD0000083802405E
:100780008811020810B51748006810F00C011648CF
:1007900016D04310042912D0082911D1114C241F5E
:1007A000216801F03F02216849020AD52068C0F3A0
:1007B0008810A0FB03010023FFF702FD09E01846A3
:1007C00010BD21680023C1F38811A1FB0001FFF7D0
:1007D000F7FC2168C1F30141491C4900B0FBF1F06D
:1007E00010BD0000083802400024F4002DE9F84F45
:1007F0000446002C13D02078DFF8A083C007A8F1AE
:10080000040556D008F104000168C1F381010129F3
:100810000CD00068C0F38100022803D00DE0012055
:10082000BDE8F88FD8F80000400206D5286880039C
:100830003FD5606870BB0120F2E76068B0F5803F8B
:1008400010D0B0F5A02F12D0286820F48030286096
:10085000286820F4802028606068E0B1FFF732FE4D
:10086000064614E0286840F480302860F4E72868E1
:1008700040F480202860286840F480302860EBE74E
:10088000FFF720FE801B642801D90320C8E72868F1
:100890008003F5D50DE0FFF715FE064606E0FFF7ED
:1008A00011FE801B642801D90320B9E72868800362
:1008B000F5D42078BA4F80074FF0000948D5B748E3
:1008C000001D016811F00C0F08D00068C0F3810012
:1008D000022813D1D8F8000040020FD428688007FE
:1008E00004D5E068012801D0012099E72868216932
:1008F00020F0F80040EAC100286029E0E068B8B1C3
:1009000001203860FFF7DEFD064606E0FFF7DAFD5E
:10091000801B022801D9032082E728688007F5D5CB
:100920002868216920F0F80040EAC10028600FE043
:10093000C7F80090FFF7C6FD064606E0FFF7C2FDC8
:10094000801B022801D903206AE728688007F5D4B4
:100950002078000729D5DFF844A2924861690AF19E
:10096000700A89B101210160FFF7ACFD064606E07F
:10097000FFF7A8FD801B022801D9032050E7DAF811
:1009800000008007F4D510E0C0F80090FFF79AFD52
:10099000064606E0FFF796FD801B022801D90320DA
:1009A0003EE7DAF800008007F4D42078400778D5D5
:1009B0004FF0000A79483C300068C0000BD47748FB
:1009C0003C30016841F080510160006800F08050C7
:1009D00000904FF0010ADFF8D0B1DBF80000C0054D
:1009E00014D4DBF8000040F48070CBF80000FFF76F
:1009F00069FD064606E0FFF765FD801B022801D968
:100A000003200DE7DBF80000C005F4D5634EA068B5
:100A10006C3601280FD0052812D0306820F0010074
:100A20003060306820F004003060A068F8B1FFF753
:100A300049FD834617E0306840F001003060F4E77C
:100A4000306840F004003060306840F001003060F1
:100A5000EBE7FFF737FDA0EB0B0141F28830814255
:100A600001D90320DCE630688007F2D510E0FFF7FB
:100A700029FD834609E0FFF725FDA0EB0B0141F2BC
:100A80008830814201D90320CAE630688007F2D459
:100A9000BAF1010F05D141483C30016821F0805185
:100AA0000160A069C0B33D49091D09684FF0FF36D8
:100AB000C1F38101022946D0022805D0C7F8609011
:100AC000FFF700FD04463AE0C7F86090FFF7FAFC34
:100AD000814607E0FFF7F6FCA0EB0900022801D9E8
:100AE00003209DE628688001F4D4D4E90701084377
:100AF000616AA26A890106EB520241EA0241084397
:100B000094F82C1040EA0160C8F800000120386613
:100B1000FFF7D8FC044607E03DE0FFF7D3FC001BDD
:100B2000022801D903207BE628688001F5D532E050
:100B3000FFF7C8FC001B022801D9032070E62868D3
:100B40008001F5D427E0012823D0D8F80000E2691D
:100B500000F4800191421AD1226A00F03F019142D3
:100B600015D147F6C071626A0140B1EB821F0ED108
:100B7000A26A00F4403106EB5202B1EB024F06D1FB
:100B800094F82C1000F07060B0EB016F03D00120DE
:100B900046E6012044E6002042E600000438024018
:100BA00000004742800E47420070004010B5401ED2
:100BB000B0F1807F01D3012010BD4FF0E0246061CF
:100BC0000F21601700F06AFA0020A0610720206161
:100BD000002010BD70B50446002C04D094F84100EC
:100BE000002510B106E0012070BD84F84050204679
:100BF00000F024F8242084F841002068C16821F422
:100C00000051C160204600F07BF92068016921F4A1
:100C1000904101612068416921F02A014161206809
:100C2000C16841F40051C1606564202084F841002E
:100C300084F842006563002070BD000010B586B0E6
:100C40000446142101A8FFF7F3FA144920688842EA
:100C500021D100211248026842F0100202600068AF
:100C600000F0100000900E481438026842F00102B3
:100C70000260006800F0010000904FF4C060019035
:100C8000022002900391032004900720059001A9FF
:100C90000448FFF71FFB06B010BD00000010014024
:100CA00044380240000002402DE9F84304460E4655
:100CB00015461F4694F84100202802D00220BDE8C6
:100CC000F8837EB175B100206064212084F8410072
:100CD000FFF7F8FB8146A584E584A068B0F5805F46
:100CE00002D003E00120EAE7206920B13546002662
:100CF0004FF0200815E00025FAE74B46002280213E
:100D00002046009700F086F918B184F8418003204E
:100D1000D5E7ADB1216815F8010B4860E08C401EA5
:100D2000E084E08C0028E8D14B4600224021204698
:100D3000009700F06FF950B184F841800320BEE7BE
:100D400036F8020B2168C0F308004860E6E784F833
:100D500041800020B3E7FEE730B587B0142102A838
:100D6000FFF766FA00241648016841F0800101602F
:100D7000016801F080010191016841F00201016008
:100D8000016801F002010191016841F00101016077
:100D9000006800F0010001900A4D0022042128465D
:100DA000FFF788FB042102910121039104940221A1
:100DB000059102A92846FFF78DFA07B030BD000063
:100DC000303802400004024010B50C480A49016066
:100DD0004FF4E131416000218160C16001610C226A
:100DE00042618161C161FFF7F5FE002803D0BDE8D3
:100DF0001040FFF75BBA10BD001001401400012045
:100E0000FEE7FEE770477047FFF762BB30B593B06F
:100E1000302107A8FFF70CFA142102A8FFF708FAFF
:100E200000251D48016841F080510160006800F014
:100E3000805001901948016841F4804101600068C8
:100E400000F48040019001200790000408900224E3
:100E50000D9480010E9004200F90A8211091119400
:100E6000129007A8FFF7C2FC08B1FFF71FFA0F2086
:100E70000290039404954FF4A05005904FF48050D5
:100E80000690052102A8FFF7B1FB002801D0FFF76B
:100E90000DFA13B030BD0000403802400070004031
:100EA0000248016841F470010160704788ED00E07C
:100EB00001680C3151E8002F22F4907241E80023C0
:100EC000002BF5D10168143151E8002F22F0010206
:100ED00041E80023002BF5D1016B012909D10168FC
:100EE0000C3151E8002F22F0100241E80023002BC2
:100EF000F5D1202180F842100021016370470000E5
:100F00002DE9F041044620680169E26821F440516E
:100F100011430161A1682069E269014360691043DE
:100F200001432068C26849F20C639A430A43C260D5
:100F300020684169A26921F440711143416133493C
:100F40002068884202D03249884202D1FFF70AFC69
:100F500001E0FFF7F7FBE16900231927642532263A
:100F6000B1F5004F28D061688B0F8A00A0FB070104
:100F7000FFF726F90146B0FBF5F07A42504301EB4A
:100F8000800006EB0010B0FBF5F000F0F002B1FBC2
:100F9000F5F002EB0012B1FBF5F07B42584301EB98
:100FA000800006EB0010B0FBF5F0216800F00F00A8
:100FB00010448860BDE8F08161684A18A0FB070111
:100FC0005B41FFF7FDF80146B0FBF5F00201B1FB14
:100FD000F5F06FF01803584301EB800006EBC000FA
:100FE000B0FBF5F000F0F80002EB4002B1FBF5F0C9
:100FF000584301EB800006EBC000B0FBF5F0216820
:1010000000F0070010448860D4E7000000100140A1
:10101000001401402DE9F84304460D461746984652
:10102000089E25E0701C23D0FFF74CFAA0EB0800C7
:10103000B0421BD8D6B12068C168490718D5802DA9
:1010400016D0402D14D00168C943090710D40025DB
:1010500021680968406800902046FFF729FF0820B2
:10106000606484F840500120BDE8F8830320FBE76A
:101070002068006835EA000004D00020B842D1D0D2
:101080000020F1E70120F9E7FEE70000014A0249EC
:1010900000F023B8FD100208100001200907090E16
:1010A000002804DB00F1E02080F80014704700F015
:1010B0000F0000F1E02080F8141D704702E008C81E
:1010C000121F08C1002AFAD170477047002001E0C2
:1010D00001C1121F002AFBD170472DE9F0411646CD
:1010E0000F460446002503E03946B047641C6D1CDA
:1010F00020780028F8D12846BDE8F08113B54FF4D8
:101100007A73012269460248FFF7CEFD00981CBDA4
:10111000140001200D490C48086062B6FFF7E0F9A1
:10112000FFF774FEFFF718FEFFF74EFE084C4FF472
:101130007A7504212046FFF7B5F906A0FFF7A6FF50
:101140002846FFF7B5F8F4E70000020808ED00E0D4
:101150000004024054686973206973204170703143
:10116000202E2031303030206D7320736574204C78
:1011700045440D0A000000000000000000000000CF
:10118000010203040607080900000000010203042D
:10119000B01102080000012014000000BC10020879
:1011A000C4110208140001204C040000CC100208F5
:1011B0000100000010000000000000000024F40006
:0411C000000000002B
:040000050802018963
:00000001FF
