:020000040800F2
:10000000D00500209D01000877120008C5110008E6
:1000100075120008CD020008FD1400080000000061
:100020000000000000000000000000007B1200083B
:10003000CF02000800000000791200087D120008BD
:10004000B7010008B7010008B7010008B7010008B0
:10005000B7010008B7010008B7010008B7010008A0
:10006000B7010008B7010008B7010008B701000890
:10007000B7010008B7010008B7010008B701000880
:10008000B7010008B7010008B7010008B701000870
:10009000B7010008B7010008B7010008B701000860
:1000A000B7010008B7010008B7010008B701000850
:1000B000B7010008B7010008B7010008B701000840
:1000C000B7010008B7010008B7010008B701000830
:1000D000B7010008B7010008B7010008B701000820
:1000E000B7010008B7010008B7010008B701000810
:1000F000B7010008B7010008B7010008B701000800
:10010000B7010008B7010008B7010008B7010008EF
:10011000B7010008B7010008B7010008B7010008DF
:10012000B7010008B7010008B7010008B7010008CF
:10013000B7010008B7010008B7010008B7010008BF
:10014000B7010008B7010008B7010008B7010008AF
:10015000B7010008B7010008B7010008B70100089F
:10016000B7010008B7010008B7010008B70100088F
:10017000B7010008B7010008B7010008000000003F
:10018000B7010008B7010008DFF80CD000F08CF8C8
:100190000048004739180008D0050020064880476D
:1001A00006480047FEE7FEE7FEE7FEE7FEE7FEE75C
:1001B000FEE7FEE7FEE7FEE71513000889010008E9
:1001C0002DE9F05F0546002092469B46884606468C
:1001D000814640241BE0284641464746224600F01F
:1001E00053F853465A46C01A914110D31146184647
:1001F000224600F03AF82D1A67EB01084F462246D6
:100200000120002100F031F817EB00094E41201EBB
:10021000A4F10104DFDC484631462A464346BDE8E6
:10022000F09FD2B201E000F8012B491EFBD27047CB
:100230000022F6E710B513460A4604461946FFF7B2
:10024000F0FF204610BD30B505462A460B4612F891
:10025000010B13F8014B08B1A042F8D01CB10028E3
:1002600002D06D1CF1E7284630BD202A04DB203A7D
:1002700000FA02F1002070479140C2F1200320FAF9
:1002800003F3194390407047202A04DB203A21FAF7
:1002900002F00021704721FA02F3D040C2F120029F
:1002A0009140084319467047064C074D06E0E06848
:1002B00040F0010394E8070098471034AC42F6D3AD
:1002C000FFF766FF181C0008381C0008FEE770479F
:1002D00072B6FEE70022002905D001291AD00229B2
:1002E0001BD04FF440720E490B6823F440730B602F
:1002F0000B6813430B600A6822F0F8020A600A6870
:10030000022303EBC00002430A60086840F4803017
:10031000086070474FF48072E5E74FF40072E2E73F
:10032000103C02401348016889050FD5016821F48B
:1003300000710160016841F400610160016821F40D
:1003400000610160016841F40071016001684905C4
:100350000FD5016821F480610160016841F480518A
:100360000160016821F480510160016841F48061FD
:1003700001607047003C024008490A6822F440725C
:100380000A600A6842F004020A600A684FF4803387
:1003900043EA002002430A6070470000103C02401C
:1003A000064A136823F440731360136813601368DC
:1003B00043F001031360017070470000103C0240DD
:1003C00010B509490C6824F440740C600C6844F4BE
:1003D00040740C600C6844F001040C600260BFF3D0
:1003E0006F8F436010BD0000103C0240074A136845
:1003F00023F440731360136843F48073136013682D
:1004000043F001031360018070470000103C02407C
:10041000074A136823F440731360136843F40073AE
:100420001360136843F0010313600160704700001C
:10043000103C024017490868C206174805D5C26932
:1004400042F01002C26110220A600A68920605D5C5
:10045000C26942F00802C26120220A600A6852069C
:1004600005D5C26942F00402C26140220A600A68EE
:10047000120605D5C26942F00202C26180220A60FA
:100480000A68920705D5C26942F02002C2610220C3
:10049000086070470C3C0240AC01002070B5044677
:1004A00011490020C86100F0CBF905460F4E09E064
:1004B000601C07D024B100F0C3F9401BA04201D951
:1004C000032070BD3068C003F2D43068C00701D08B
:1004D00001203060306810F0F20F03D0FFF7AAFF60
:1004E000012070BD002070BDAC0100200C3C02401A
:1004F00070B5044600F0A4F90546601C02D004481B
:100500000078044400F09CF9401BA042FAD370BD6F
:10051000080000202DE9F04704460E46DFF88C80E5
:1005200098F8180001280BD0012088F818004CF228
:1005300050394846FFF7B2FF0246100003D02FE0C3
:100540000220BDE8F0874FF0FF3030602068184F80
:10055000012801D0A5681CE0207C6168FFF70CFF32
:100560004846FFF79BFF0246386820F004003860D9
:1005700014E0217C2846FFF7ADFE4846FFF78EFFCA
:100580000246386820F0FA0038600AB1356005E0AC
:100590006D1CD4E902100844A842EAD8FFF7C2FE55
:1005A000002088F818001046CBE70000AC010020BE
:1005B000103C02400348016841F000410160002006
:1005C00070470000103C02402DE9F047064689467E
:1005D00014461D46194F387E012808D00120387670
:1005E0004CF250384046FFF759FF18B114E0022092
:1005F000BDE8F0879EB1012E16D0022E19D02246FA
:100600002B464846FFF7DCFE4046FFF747FF0C4904
:100610000A6822F001020A6000213976E8E7E1B2B7
:100620004846FFF7BDFEEFE7A1B24846FFF7DEFE02
:10063000EAE721464846FFF7EBFEE5E7AC0100207C
:10064000103C0240002007490A68002A09DA054ADE
:10065000054B0C3A1360054B13600968002900DA5A
:1006600001207047103C024023016745AB89EFCD64
:100670002DE9F84F0022DFF89C914FF00108032785
:100680004FF00F0C09F1040AA9F1040B08FA02F566
:100690000B682B40AB426ED10C7904F00304012CA3
:1006A00001D0022C15D18668540007FA04FE26EA10
:1006B0000E06D1F80CE00EFA04FE4EEA060EC0F863
:1006C00008E04468AC430D79C5F300159540254317
:1006D00045600C79E443A40708D0C568540007FAC4
:1006E00004F6B5438E68A6402E43C6600C7904F02C
:1006F0000304022C11D1D40800EB8406356A540798
:10070000E40E0CFA04FE25EA0E05D1F810E00EFA0C
:1007100004FE4EEA050EC6F820E00568540007FA0C
:1007200004F6B5430E7906F00306A6402E43066094
:100730004C6814F4403F67D0374C256845F4804539
:100740002560246804F480440094344C22F00305AE
:100750002E19D6F8085894074FEA147E0CFA0EF4B6
:10076000A5432F4CA04201D1002424E02D4CA042EF
:1007700002D101241FE047E02B4CA04201D102240A
:1007800019E02A4CA04201D1032414E0284CA042D5
:1007900001D104240FE0274CA04201D105240AE036
:1007A000254CA04201D1062405E0244CA04201D1F1
:1007B000072400E0082404FA0EF42C43C6F8084885
:1007C000D9F800409C434D68ED0200D51C43C9F8A0
:1007D0000040DAF800409C434D68AD0200D51C4350
:1007E000CAF80040DBF800409C434D68AD0300D5DB
:1007F0001C43CBF80040074D083D2C689C434E68D5
:10080000F60300D51C432C60521C102AFFF43EAFA7
:10081000BDE8F88F083C01404438024000300140F8
:10082000000002400004024000080240000C0240A8
:10083000001002400014024000180240001C024058
:100840000148806870470000080000200248816865
:1008500002781144816070470800002010B50B48F1
:10086000016841F400710160016841F48061016038
:10087000016841F480710160032000F063F80F20EB
:1008800000F006F800F026F8002010BD003C024001
:1008900070B504460D4D4FF47A712878B1FBF0F035
:1008A0000B490968B1FBF0F000F03EFB08B10120F4
:1008B00070BD102C07D200222146501E00F022F8F5
:1008C0006C60002070BD012070BD00000800002099
:1008D0001400002008B50A48016841F48041016015
:1008E000006800F4804000900548001F016841F056
:1008F00080510160006800F08050009008BD000049
:1009000044380240F0B40D460D4B1B68C3F302237C
:10091000C3F10704042C00D90424191D072901D2AE
:10092000002300E0DB1E012606FA04F1491E2940DF
:1009300099409E40761E16403143F0BC00F0F0BD59
:100940000CED00E000F00701054A10684FF6FF03C8
:10095000184040EA01200349084310607047000036
:100960000CED00E00000FA052DE9F04704460D46C5
:10097000002C13D0DFF82891D9F80000EFB200F076
:100980000700A8420CD289F80070D9F8000000F0E6
:100990000700A84204D00120BDE8F0870120FBE752
:1009A0002068404E810712D5400703D5306840F4D7
:1009B000E05030602078000703D5306840F4604094
:1009C00030603068A16820F0F00008433060207883
:1009D000C00731D0334960680839012808D002289F
:1009E0000BD0032809D0096889070BD40120D3E76D
:1009F0000968890306D40120CEE70968890101D47A
:100A00000120C9E7316821F0030101433160FFF79C
:100A100017FF804641F2883A07E0FFF711FFA0EB8D
:100A20000800504501D90320B6E73068616800F03E
:100A30000C00B0EB810FF0D1D9F8000000F00700F6
:100A4000A84209D989F80070D9F8000000F0070021
:100A5000A84201D001209FE72078400705D53068E3
:100A6000E16820F4E050084330602078000706D5A4
:100A70003068216920F4604040EAC100306000F035
:100A80003FF83168084AC1F30311515CC840074977
:100A9000086007480068FFF7FBFE00207CE70000C5
:100AA000003C024008380240001C000814000020EE
:100AB0000C0000200148006870470000140000206E
:100AC00000B5FFF7F7FF04490968044AC1F3822122
:100AD000515CC84000BD000008380240101C0008EE
:100AE00000B5FFF7E7FF04490968044AC1F3423142
:100AF000515CC84000BD000008380240101C0008CE
:100B000010B51748006810F00C01164816D04310B5
:100B1000042912D0082911D1114C241F216801F099
:100B20003F02216849020AD52068C0F38810A0FB63
:100B300003010023FFF744FB09E0184610BD2168BC
:100B40000023C1F38811A1FB0001FFF739FB2168E5
:100B5000C1F30141491C4900B0FBF1F010BD000098
:100B6000083802400024F4002DE9F84F0446002C18
:100B700013D02078DFF8A083C007A8F1040556D071
:100B800008F104000168C1F3810101290CD000685B
:100B9000C0F38100022803D00DE00120BDE8F88FEA
:100BA000D8F80000400206D5286880033FD5606869
:100BB00070BB0120F2E76068B0F5803F10D0B0F55F
:100BC000A02F12D0286820F480302860286820F4F4
:100BD000802028606068E0B1FFF732FE064614E02E
:100BE000286840F480302860F4E7286840F48020CA
:100BF0002860286840F480302860EBE7FFF720FE8B
:100C0000801B642801D90320C8E728688003F5D534
:100C10000DE0FFF715FE064606E0FFF711FE801B0C
:100C2000642801D90320B9E728688003F5D4207827
:100C3000BA4F80074FF0000948D5B748001D01683A
:100C400011F00C0F08D00068C0F38100022813D106
:100C5000D8F8000040020FD42868800704D5E06867
:100C6000012801D0012099E72868216920F0F800C7
:100C700040EAC100286029E0E068B8B1012038608E
:100C8000FFF7DEFD064606E0FFF7DAFD801B0228CF
:100C900001D9032082E728688007F5D528682169F3
:100CA00020F0F80040EAC10028600FE0C7F800908B
:100CB000FFF7C6FD064606E0FFF7C2FD801B0228CF
:100CC00001D903206AE728688007F5D42078000757
:100CD00029D5DFF844A2924861690AF1700A89B106
:100CE00001210160FFF7ACFD064606E0FFF7A8FD15
:100CF000801B022801D9032050E7DAF800008007A2
:100D0000F4D510E0C0F80090FFF79AFD064606E023
:100D1000FFF796FD801B022801D903203EE7DAF891
:100D200000008007F4D42078400778D54FF0000AFF
:100D300079483C300068C0000BD477483C300168EB
:100D400041F080510160006800F0805000904FF049
:100D5000010ADFF8D0B1DBF80000C00514D4DBF8DD
:100D6000000040F48070CBF80000FFF769FD0646F4
:100D700006E0FFF765FD801B022801D903200DE77F
:100D8000DBF80000C005F4D5634EA0686C3601287E
:100D90000FD0052812D0306820F001003060306894
:100DA00020F004003060A068F8B1FFF749FD8346E9
:100DB00017E0306840F001003060F4E7306840F040
:100DC00004003060306840F001003060EBE7FFF76E
:100DD00037FDA0EB0B0141F28830814201D903209D
:100DE000DCE630688007F2D510E0FFF729FD834686
:100DF00009E0FFF725FDA0EB0B0141F288308142AD
:100E000001D90320CAE630688007F2D4BAF1010F95
:100E100005D141483C30016821F080510160A06952
:100E2000C0B33D49091D09684FF0FF36C1F3810188
:100E3000022946D0022805D0C7F86090FFF700FDD0
:100E400004463AE0C7F86090FFF7FAFC814607E0F5
:100E5000FFF7F6FCA0EB0900022801D903209DE66C
:100E600028688001F4D4D4E907010843616AA26AC2
:100E7000890106EB520241EA0241084394F82C1022
:100E800040EA0160C8F8000001203866FFF7D8FC8E
:100E9000044607E03DE0FFF7D3FC001B022801D920
:100EA00003207BE628688001F5D532E0FFF7C8FC17
:100EB000001B022801D9032070E628688001F5D4C0
:100EC00027E0012823D0D8F80000E26900F480016F
:100ED00091421AD1226A00F03F01914215D147F6A2
:100EE000C071626A0140B1EB821F0ED1A26A00F4A8
:100EF000403106EB5202B1EB024F06D194F82C10B0
:100F000000F07060B0EB016F03D0012046E60120D5
:100F100044E6002042E60000043802400000474258
:100F2000800E47420070004010B5401EB0F1807F37
:100F300001D3012010BD4FF0E02460610F21601744
:100F400000F0EEFA0020A06107202061002010BD13
:100F500070B50446002C04D094F84100002510B16F
:100F600006E0012070BD84F84050204600F024F8CF
:100F7000242084F841002068C16821F40051C16038
:100F8000204600F0F7F92068016921F490410161E1
:100F90002068416921F02A0141612068C16841F45B
:100FA0000051C1606564202084F8410084F842004B
:100FB0006563002070BD0000F0B587B004461421C1
:100FC00002A8FFF735F9234F21680026224A0223A1
:100FD000032407252148B9421CD11F4914310F6849
:100FE00047F010070F60096801F0100101911168C6
:100FF00041F001011160116801F0010101916102EC
:101000000291039304960594069502A9FFF730FB1D
:1010100007B0F0BD124FB942FAD10F4910310F6835
:1010200047F400370F60096801F40031019111683D
:1010300041F001011160116801F0010101910C21E1
:101040000291039304960594069502A9FFF710FBFD
:10105000DEE700000010014030380240000002408E
:10106000004400402DE9F84F04460E4615469846C8
:1010700094F84200202802D00220BDE8F88FBEB1CB
:10108000B5B100206064222184F842102063FFF78C
:10109000D7FB8246A585E585A0684FF48057B84206
:1010A00001D1206930B1354600264FF0200928E0F3
:1010B0000120E2E70025F8E75346002220212046E0
:1010C000CDF8008000F0E0F918B184F842900320D8
:1010D000D3E725B1A068B84219D038B108E020683C
:1010E0004068C0F3080026F8020B07E0206970B1E1
:1010F0002068406800F07F0028706D1CE08D401E65
:10110000E085E08D0028D7D184F84290B5E72068CB
:1011100040682870F1E72DE9F84304460E4615466D
:101120001F4694F84100202802D00220BDE8F88331
:101130007EB175B100206064212084F84100FFF782
:101140007FFB8146A584E584A068B0F5805F02D06E
:1011500003E00120EAE7206920B1354600264FF080
:10116000200815E00025FAE74B46002280212046A2
:10117000009700F089F918B184F841800320D5E781
:10118000ADB1216815F8010B4860E08C401EE08489
:10119000E08C0028E8D14B460022402120460097F1
:1011A00000F072F950B184F841800320BEE736F8B0
:1011B000020B2168C0F308004860E6E784F841802C
:1011C0000020B3E7FEE7000008B50D48016841F0D4
:1011D00004010160016801F004010091016841F01F
:1011E00080010160016801F080010091016841F017
:1011F00001010160006800F00100009008BD0000DE
:101200003038024010B50C480A4901604FF4E13112
:10121000416000218160C16001610C2242618161F5
:10122000C161FFF795FE002803D0BDE81040FFF72D
:101230004FB810BD001001401C01002010B50C4833
:101240000A4901604FF4E131416000218160C160D1
:1012500001610C2242618161C161FFF779FE0028C2
:1012600003D0BDE81040FFF733B810BD0044004084
:1012700064010020FEE7FEE770477047FFF7E6BA1B
:1012800030B593B0302107A8FEF7D2FF142102A891
:10129000FEF7CEFF00251D48016841F08051016036
:1012A000006800F0805001901948016841F48041C5
:1012B0000160006800F48040019001200790000464
:1012C000089002240D9480010E9004200F90A82114
:1012D00010911194129007A8FFF746FC08B1FEF791
:1012E000F7FF0F200290039404954FF4A05005904F
:1012F0004FF480500690052102A8FFF735FB002827
:1013000001D0FEF7E5FF13B030BD000040380240C9
:10131000007000400248016841F4700101607047AC
:1013200088ED00E001680C3151E8002F22F4907242
:1013300041E80023002BF5D10168143151E8002F5A
:1013400022F0010241E80023002BF5D1016B0129B5
:1013500009D101680C3151E8002F22F0100241E858
:101360000023002BF5D1202180F8421000210163D9
:10137000704700002DE9F041044620680169E268E9
:1013800021F4405111430161A1682069E2690143E0
:101390006069104301432068C26849F20C639A43B4
:1013A0000A43C26020684169A26921F44071114377
:1013B000416133492068884202D03249884202D1D3
:1013C000FFF78EFB01E0FFF77BFBE16900231927A4
:1013D00064253226B1F5004F28D061688B0F8A0052
:1013E000A0FB0701FEF7ECFE0146B0FBF5F07A42E8
:1013F000504301EB800006EB0010B0FBF5F000F06D
:10140000F002B1FBF5F002EB0012B1FBF5F07B420C
:10141000584301EB800006EB0010B0FBF5F02168AB
:1014200000F00F0010448860BDE8F08161684A1840
:10143000A0FB07015B41FEF7C3FE0146B0FBF5F0E0
:101440000201B1FBF5F06FF01803584301EB800087
:1014500006EBC000B0FBF5F000F0F80002EB400234
:10146000B1FBF5F0584301EB800006EBC000B0FB88
:10147000F5F0216800F0070010448860D4E7000010
:1014800000100140001401402DE9F84304460D46C8
:1014900017469846089E25E0701C23D0FFF7D0F928
:1014A000A0EB0800B0421BD8D6B12068C16849073C
:1014B00018D5802D16D0402D14D00168C9430907D6
:1014C00010D4002521680968406800902046FFF785
:1014D00029FF0820606484F840500120BDE8F883AB
:1014E0000320FBE72068006835EA000004D00020F4
:1014F000B842D1D00020F1E70120F9E7FEE7000073
:101500000FB4054B10B503A9044A029800F028F85F
:1015100010BC5DF814FB0000211800081800002022
:101520000907090E002804DB00F1E02080F8001410
:10153000704700F00F0000F1E02080F8141D7047A4
:1015400002E008C8121F08C1002AFAD1704770478C
:10155000002001E001C1121F002AFBD170470000EA
:101560002DE9FF4F8DB09B460F460446002606E04E
:1015700025280BD05A460F999047641C761C20787A
:101580000028F5D111B03046BDE8F08F0025A846FF
:101590000122984900E0054314F8013F203B02FA7C
:1015A00003F00842F7D120782E2817D114F8010F44
:1015B00045F004052A280ED06FF02F022078A0F104
:1015C000300109290AD808EB880102EB410100EB40
:1015D0000108641CF2E757F8048B641C20786C281F
:1015E0000DD004DC4C2812D06A2811D104E07428F4
:1015F0000DD07A280CD10AE045F4001507E0617897
:1016000045F48015814202D1641C05F58015641CE7
:101610002278692A45D008DC002AB3D0582A69D03C
:10162000632A10D0642A08D13BE0702A67D0732A5D
:1016300013D0752A5CD0782A5CD010465A460F9990
:101640009047761CD3E017F8040B8DF800000020BB
:101650008DF80100E946012003E057F8049B4FF0A4
:10166000FF3069074FF0000501D40AE06D1C4545C5
:101670000DDA8542FADB19F805100029F6D106E0EB
:101680006D1C8542FCDB19F805100029F8D12E44A9
:1016900004E019F8010B5A460F9990476D1EF8D2D5
:1016A000A5E00A200021CDE90801C5F30250022877
:1016B0000DD001CFC117031E71F100030DDA4FF0F9
:1016C000000CD0EB0C006CEB01012D2308E0FF1D9A
:1016D00027F00707F7E80201EDE72B0504D52B23D8
:1016E0008DF8283001233BE0EB0739D02023F7E7C2
:1016F0000A2000E010200021CDE9080107E01020B9
:10170000002145F00405CDE908014FF00808C5F3B4
:10171000025002280FD001CF00214FF0000A2B0702
:101720001FD5702A0DD0DDE908C38CF0100C5CEADF
:10173000030C0CD015E0FF1D27F00707F7E80201A6
:10174000EBE740228DF828204FF0010A0BE050EA29
:10175000010306D030238DF828308DF8292002238C
:101760009A46582A04D024A20DF120090B9209E0D0
:1017700026A2F9E7DDE90823FEF722FD0B9B9B5C1F
:1017800009F8013D50EA0102F4D1ADEB0900203027
:101790000890680701D44FF001080899884502DDD8
:1017A000A8EB010000E000208046002506E00AA822
:1017B0005A46405D0F9990476D1C761C5545F6DBE7
:1017C00004E030205A460F999047761CB8F100018A
:1017D000A8F10108F5DC05E019F8010B5A460F994C
:1017E0009047761C0899481E08900029F4DC641C78
:1017F000C5E6000009280100303132333435363770
:10180000383961626364656600000000303132334C
:1018100034353637383941424344454600000000EC
:1018200013B54FF47A73012269460248FFF773FC3F
:1018300000981CBD1C0100202DE9F04F87B0FFF778
:101840000DF8FFF71DFDFFF7BFFCFFF7DBFCFFF70F
:10185000F5FC60A0FFF754FE64A0FFF751FE0024E2
:10186000DFF898914FF47A7600254FF4807B611C65
:1018700063A0FFF745FE33465A466D496D48FFF7B2
:10188000F1FB6DA16A48FEF7DEFC00B3FEF7DAFE5D
:1018900002950124039405200490022005900690EF
:1018A00001A902A8FEF736FE48B1FEF783FE64A048
:1018B0000199FFF725FEA01E07B0BDE8F08FFEF7E7
:1018C00079FE89F8004067A0FFF71AFE03E0641C68
:1018D000E4B20A2CCBD399F80000DFF8A0A10128CC
:1018E00052D1002666A0FFF70BFE554647F2305353
:1018F0005A464F494F48FFF7B5FB032801D030B196
:1019000060E06DA0FFF7FCFD4FF0FF30D4E7484FDB
:10191000DFF8D48131E057F8242045450FD2002369
:1019200029460220FEF750FE40B1FEF743FE29464D
:101930006EA0FFF7E5FD4FF0FF30BDE72D1D641CE5
:10194000E4B2402CE7D3FEF735FE761CF6B2324601
:10195000294670A0FFF7D4FD4FF4FA635A46344984
:101960003448FFF77FFB032807D199F80100401C9A
:10197000C0B289F80100022803D0FEF763FE0024FC
:10198000C9E76FA0FFF7BCFD74A0FFF7B9FD0A20FF
:10199000FEF7AEFD79A0DAF80010FFF7B1FD82493D
:1019A000DAF800000144B1F5404F08D872B680F370
:1019B0000888DAF80400C9F80400804702E07BA038
:1019C000FFF79EFD80A0FFF79BFD9620FEF790FDA0
:1019D000F8E70000626F6F746C6F61646572206974
:1019E000732072756E6E696E670D0A004C65742700
:1019F0007320646F2069740D0A000000000000204D
:101A0000D4DACAAEC3EBC4DACAE4C8EB3A207570C4
:101A10006461746520BCB4B8FCD0C241707020BC55
:101A2000C6CAB13A20256420C3EB0D0A00000000AD
:101A30001C0000201C0100207570646174650000AA
:101A40002D2D2D2D2D2D2D2D2D2D2D2D45726173EF
:101A500065206661696C2061743A307825780D0ADA
:101A6000000000002D2D2D2D2D2D2D2D2D2D2D2D5A
:101A70004572617365204F4B0D0A0000000002089B
:101A80002D2D2D2D2D2D2D2D2D2D2D2D726561649E
:101A90007920746F20726563656976652062696E6E
:101AA0002C20706C656173652073656E6420696EAF
:101AB000203330730D0A00002D2D2D2D2D2D2D2DB1
:101AC0002D2D2D2D74696D65206F75742C20656E1C
:101AD00064207761697420746F207265636569762C
:101AE000652062696E0D0A00000006082D2D2D2D5F
:101AF0002D2D2D2D2D2D2D2D777269746520666C61
:101B0000617368206661696C2061743A20307825C1
:101B1000780D0A002D2D2D2D2D2D2D2D2D2D2D2D1A
:101B20007772697465203235362062747965204F8A
:101B30004B3A20307825780925640D0A0000000012
:101B40002D2D2D2D2D2D2D2D2D2D2D2D456E642042
:101B50007772697465204F4B0D0A00002D2D2D2DD5
:101B60002D2D2D2D2D2D2D2D7374617274207573D7
:101B70006572206170700D0A000000002D2D2D2D62
:101B80002D2D2D2D2D2D2D2D4170706C69636174BF
:101B9000696F6E5F53746172745F416464723A2559
:101BA00030780D0A000000000000FFDF7468652037
:101BB00076616C7565206F66204D5350206572729A
:101BC0006F720D0A000000002D2D2D2D2D2D2D2DB5
:101BD0002D2D2D2D64656675616C7420626F6F7498
:101BE0006C6F616465722069732072756E6E696EC8
:101BF0006720616E64206E6F206170700D0A0000B6
:101C000000000000000000000102030406070809AC
:101C10000000000001020304381C0008000000203E
:101C20001C00000040150008541C00081C00002087
:101C3000B40500005015000800000000000000007E
:101C40000100000010000000000000000024F4006B
:041C50000000000090
:040000050800018965
:00000001FF
